:020000040800F2
:10000000008001200D0800085D0800085D08000858
:100010005D0800085D0800085D0800080000000099
:100020000000000000000000000000005D08000863
:100030005D080008000000005D0800085D08000879
:100040005D0800085D0800085D0800085D080008FC
:100050005D0800085D0800085D0800085D080008EC
:100060005D0800085D0800085D0800085D080008DC
:100070005D0800085D0800085D0800085D080008CC
:100080005D0800085D0800085D0800085D080008BC
:100090005D0800085D0800085D0800085D080008AC
:1000A0005D0800085D0800085D0800085D0800089C
:1000B0005D0800085D0800085D0800085D0800088C
:1000C0005D0800085D0800085D0800085D0800087C
:1000D0005D0800085D0800085D0800085D0800086C
:1000E0005D0800085D0800085D0800085D0800085C
:1000F0005D0800085D0800085D0800085D0800084C
:100100005D0800085D0800085D0800085D0800083B
:100110005D0800085D0800085D0800085D0800082B
:100120005D0800085D0800085D0800085D0800081B
:100130005D0800085D0800085D0800085D0800080B
:100140005D0800085D0800085D0800085D080008FB
:100150005D0800085D0800085D0800085D080008EB
:100160005D0800085D0800085D0800085D080008DB
:100170005D0800085D0800085D0800085D080008CB
:080180005D0800085D0800089D
:1001900010B5054C237833B9044B13B10448AFF3C1
:1001A00000800123237010BD6C00002000000000BF
:1001B000E824000808B5034B1BB103490348AFF31B
:1001C000008008BD0000000070000020E824000846
:1001D000034613F8012B002AFBD1181A0138704787
:1001E00001F0FF01102A2BDB10F0070F08D010F8E8
:1001F000013B013A8B422DD010F0070F42B3F6D1EC
:10020000F0B441EA012141EA014122F007047FF004
:1002100000070023F0E80256083C85EA010586EA5B
:10022000010685FA47F5A3FA87F586FA47F6A5FA97
:1002300087F68EB9EED1F0BC01F0FF0102F00702A3
:1002400032B110F8013B013A83EA010313B1F8D14E
:100250000020704701387047002D06BF354603382F
:10026000073815F0010F07D1013015F4807F02BF68
:10027000013015F4C03F0130F0BC0138704700BFB9
:1002800080B483B000AF00237B6002E07B68013361
:100290007B607B684CF24F329342F7D900BF00BFBE
:1002A0000C37BD4680BC704780B584B000AF0223D8
:1002B0007B7205237B7300233B730023FB720223B5
:1002C000BB724FF090437B6001214FF0904000F0F3
:1002D000C7FA04233B723B1D184600F037FB052389
:1002E0003B723B1D184600F031FB06233B723B1D61
:1002F000184600F02BFB07233B723B1D184600F00D
:1003000025FB00BF1037BD4680BD000080B584B01E
:1003100000AF01210D4800F0D1FC0C4B7B600123A4
:100320003B7201237B720023BB730023BB7200234B
:10033000FB7200233B7300237B733B1D184600F0C8
:10034000F3FC00BF1037BD4680BD00BF0030014048
:1003500080B584B000AF3B1D00221A605A609A60DD
:1003600000237B720023FB720223BB724FF0904389
:100370007B600C233B7201214FF0904000F070FA3B
:100380003B1D184600F0E2FA00BF1037BD4680BDA5
:1003900080B483B000AF0346FB71FB79F52B01D12C
:1003A000012300E0002318460C37BD4680BC70478F
:1003B00080B588B000AF01F021F8FF23FB75DB4B5F
:1003C000BB610023FB70FFF7C3FFFFF76DFFFFF773
:1003D0009DFF0121D64800F02AFDD64801F094FA8D
:1003E00000BF0C214FF0904000F052FC0346002B60
:1003F000F7D1FFF745FF0121CD4800F0FDFC502368
:10040000FB7407F1130301221946C94800F040FDAF
:1004100007F1120301221946C54800F08AFDFFF7D3
:100420002FFF07F1170301221946C14800F030FDE4
:1004300007F1120301221946BD4800F07AFDFFF7CB
:100440001FFFFFF71DFFBB7C1846FFF7A1FF034608
:10045000002B0AD009233B7501237B7507F1140398
:1004600002221946B24800F013FD07F112030222DE
:100470001946AF4800F05DFD00BF0C214FF09040E1
:1004800000F006FC0346002BF7D1FFF7F9FE5123DD
:10049000FB7407F1130301221946A54800F0F8FC8C
:1004A00007F1120301221946A14800F042FDFFF7AF
:1004B000E7FE07F11703012219469D4800F0E8FC0A
:1004C00007F1120301221946994800F032FDFFF7A7
:1004D000D7FEBB7C1846FFF75BFF0346002B08D016
:1004E00000233B7507F1140301221946904800F0E0
:1004F000CFFC07F11203012219468D4800F019FDC7
:10050000FFF7BEFE07F1170301221946884800F0E5
:10051000BFFC07F1110301221946854800F009FDCF
:100520007B7C1946844801F069F900BF0C214FF02B
:10053000904000F0ADFB0346002BF7D1FFF7A0FE83
:100540005223FB7407F1130301221946784800F087
:100550009FFC07F1120301221946754800F0E9FCDF
:10056000FFF78EFE07F1170301221946704800F0CD
:100570008FFC07F11203012219466D4800F0D9FCE7
:10058000FFF77EFEBB7C1846FFF702FF0346002BF9
:1005900008D009233B7507F114030122194664486A
:1005A00000F076FC07F1120301221946604800F0C2
:1005B000C0FCFFF765FE07F11703012219465C48EE
:1005C00000F066FC07F1100301221946584800F0BC
:1005D000B0FC3B7C1946594801F010F900BF0C21D2
:1005E0004FF0904000F054FB0346002BF7D1FFF78B
:1005F00047FE5323FB7407F11303012219464C48AD
:1006000000F046FC07F1120301221946484800F0A9
:1006100090FCFFF735FE07F1170301221946444805
:1006200000F036FC07F1120301221946404800F0A1
:1006300080FCFFF725FEBB7C1946414801F0DEF83F
:10064000BB7C1846FFF7A4FE0346002B15D0B86903
:10065000FFF7BEFD0346DBB2FB70FB1C012219460F
:10066000334800F015FCFFF70BFEFB781A46B9691A
:100670002F4800F00DFCFFF703FE07F112030122E3
:1006800019462B4800F055FCFFF7FAFD2D4801F004
:100690003BF900BF0C214FF0904000F0F9FA0346FF
:1006A000002BF7D1224800F02DFC07F112030122A4
:1006B00019461F4800F03DFC07F1120301221946BC
:1006C0001B4800F036FC5423FB7407F1130301228E
:1006D0001946174800F0DCFBFFF7D2FD07F11203C3
:1006E00001221946124800F024FCFFF7C9FDBB7C2B
:1006F0001946154801F082F807F11703012219463F
:100700000B4800F0C5FBFFF7BBFD07F11203012208
:100710001946074800F00DFCBB7C1946084801F05B
:100720006DF8BB7C1846FFF733FE0FE0002500088C
:10073000003001401025000820250008342500085D
:100740004825000854250008642500080346002BAE
:100750001BD00023FB6113E007F1170301221946A8
:100760000D4800F095FBFFF78BFD3A1DFB69134424
:1007700001221946084800F0DCFBFB690133FB61EC
:10078000FB69092BE8DD0023BB733B1D19460348B9
:1007900001F034F821E600BF003001407025000868
:1007A00080B586B000AF7860144A154BD31A7B61D0
:1007B0007B693B61134B1B68002B02D1114B124A22
:1007C0001A60104B1A687B6813443A699A4207D240
:1007D00000F08EFE03460C221A604FF0FF3309E052
:1007E000084B1B68FB60074B1A687B681344054A7B
:1007F0001360FB6818461837BD4680BD0080012095
:100800000004000088000020500100200D488546AB
:10081000AFF300800C480D490D4A002302E0D45884
:10082000C4500433C4188C42F9D30A4A0A4C00233A
:1008300001E013600432A242FBD300F055FFFFF742
:10084000B7FDFEE700800120000000206C000020C2
:10085000342600086C00002050010020FEE7000054
:1008600080B483B000AF78600B46FB70FB78012B3F
:1008700056D17B68B3F1904F06D12C4BDB6C2B4AE1
:1008800043F00103D3644BE07B68294A934206D1CD
:10089000264BDB6C254A43F00203D36440E07B68BF
:1008A000244A934206D1214BDB6C204A43F00403D7
:1008B000D36435E07B68204A934206D11B4BDB6C46
:1008C0001A4A43F00803D3642AE07B681B4A934228
:1008D00006D1164BDB6C154A43F01003D3641FE0BE
:1008E0007B68174A934206D1104BDB6C0F4A43F0EA
:1008F0002003D36414E07B68124A934206D10B4B69
:10090000DB6C0A4A43F04003D36409E07B680E4A7B
:10091000934205D1054BDB6C044A43F08003D3645A
:1009200000BF0C37BD4680BC704700BF00100240BE
:100930000004004800080048000C0048001000486F
:100940000014004800180048001C004880B487B01C
:1009500000AF786000237B617B685B79032B22D832
:100960007B685B791A467B681B795B0002FA03F3AC
:100970007B617B681B681A687B681B795B000321BD
:1009800001FA03F3DB4319467B681B680A401A60CF
:100990007B681B6819687B681B687A690A431A6060
:1009A00000237B61D2E07B685B79042B17D14D4B30
:1009B000DB687A681279114601228A401146494A59
:1009C0000B43D360474B9B687A681279114601222A
:1009D0008A40D2431146434A0B40936035E07B681E
:1009E0005B79052B17D13F4B9B687A6812791146CA
:1009F00001228A4011463B4A0B439360394BDB6826
:100A00007A681279114601228A40D2431146354A4A
:100A10000B40D36019E07B685B79062B15D1314B15
:100A2000DB687A681279114601228A4011462D4A04
:100A30000B43D3602B4B9B687A68127911460122D5
:100A40008A401146274A0B43936000237B617B68F1
:100A50001B681A687B681B795B00032101FA03F3AA
:100A6000DB4319467B681B680A401A607B681B6879
:100A700019687B681B687A690A431A6000237B61E6
:100A80007B681B68B3F1904F3AD07B681B68164AAD
:100A9000934224D07B681B68144A93421DD07B6824
:100AA0001B68134A934216D07B681B68114A934215
:100AB0000FD07B681B68104A934208D07B681B6884
:100AC0000E4A934201D106231BE0072319E00523B8
:100AD00017E0042315E0032313E0022311E00123B0
:100AE0000FE000BF00040140000400480008004877
:100AF000000C00480010004800140048001800488E
:100B00000023FB747B681B799B08BB747B681B7993
:100B100003F003037B74FA7C7B7C9B0002FA03F1F5
:100B2000584ABB7C023342F82310574B1B6E564A7F
:100B300043F001031366554B1B687A68127911461E
:100B400001228A401146514A0B4313607B689B790E
:100B50001A467B681B795B0002FA03F37B617B68B2
:100B60001B689A687B681B795B00032101FA03F319
:100B7000DB4319467B681B680A409A607B681B68E8
:100B800099687B681B687A690A439A6000237B61D5
:100B90007B681B7A1A467B681B7902FA03F37B6138
:100BA0007B681B685A687B681B79194601238B4058
:100BB000DB4319467B681B680A405A607B681B68E8
:100BC00059687B681B687A690A435A6000237B6115
:100BD0007B68DB791A467B681B795B0002FA03F3BA
:100BE0007B617B681B68DA687B681B795B0003218B
:100BF00001FA03F3DB4319467B681B680A40DA609D
:100C00007B681B68D9687B681B687A690A43DA606D
:100C100000237B617B681B79DB083B747B681B7955
:100C200003F00703FB737B681B683A7C083253F8B8
:100C30002210FB7B9B000F2202FA03F3DB431846D2
:100C40007B681B683A7C0140083243F822107B68BD
:100C50001B683A7C083253F822107B685B7A1A468C
:100C6000FB7B9B0002FA03F318467B681B683A7C07
:100C70000143083243F8221000BF1C37BD4680BC38
:100C8000704700BF00000140001002400004014016
:100C900080B485B000AF78600B46FB707B681A6942
:100CA000FB7822FA03F3DBB203F00103FB73FB7B57
:100CB00018461437BD4680BC7047000080B483B02E
:100CC00000AF78600B46FB70FB78012B1FD17B686F
:100CD000114A934206D1114B1B6E104A43F48053C4
:100CE000136614E07B680E4A934206D10B4B9B6D52
:100CF0000A4A43F48043936509E07B68094A9342BA
:100D000005D1064B9B6D054A43F40043936500BF34
:100D10000C37BD4680BC70470030014000100240D7
:100D200000380040003C004080B485B000AF7860DF
:100D30000023FB607B681B799B001A46FB6813430A
:100D4000FB607B685B79012B04D1FB6823F40043D3
:100D5000FB6014E07B685B79022B04D1FB6843F4F1
:100D60000043FB600BE07B685B79032B07D1FB68DA
:100D700023F40043FB60FB6843F48063FB607B6803
:100D8000DB791A46FB681343FB607B681B7A5B00C8
:100D90001A46FB681343FB607B689B7ADB001A46AC
:100DA000FB681343FB607B685B7A5B021A46FB6857
:100DB0001343FB607B681B681B687A68126823F426
:100DC000FF4323F07F0313607B681B68FA681A6097
:100DD0007B681B685B687A68126823F4FF4323F022
:100DE0007F0353607B681B684FF4B8525A6000BFA2
:100DF0001437BD4680BC704780B483B000AF7860C4
:100E00000B46FB70FB78012B06D17B681B6843F017
:100E100040027B681A6005E07B681B6823F0400293
:100E20007B681A6000BF0C37BD4680BC704780B439
:100E300083B000AF78600B46FB70FB78012B06D1C6
:100E40007B685B6843F004027B685A6005E07B685E
:100E50005B6823F004027B685A6000BF0C37BD4614
:100E600080BC704780B483B000AF786039607B6825
:100E70009B6801213A6801FA02F21340002B01D06D
:100E8000012300E0002318460C37BD4680BC7047A4
:100E900080B584B000AFF860B9607A6028E000BF28
:100EA0000121F868FFF7DEFF0346002BF8D0FB684E
:100EB0005B6803F47063B3F5706F0ED1BB681B8879
:100EC0001A46FB68DA607B68013B7B607B68013B0C
:100ED0007B60BB680133BB600AE0FB680C33BA6817
:100EE00012781A707B68013B7B60BB680133BB6082
:100EF0007B68002BD3D1F86800F004F800BF1037EE
:100F0000BD4680BD80B584B000AF786005E07B68E9
:100F1000DB68FB607B689B68BB6006217868FFF735
:100F2000A1FF0346012BF2D000BF00BF1037BD4622
:100F300080BD80B584B000AFF860B9607A6028E009
:100F400000BF0021F868FFF78DFF0346002BF8D0A3
:100F5000FB685B6803F47063B3F5706F0ED1FB68D8
:100F6000DB689AB2BB681A807B68013B7B607B6858
:100F7000013B7B60BB680133BB600AE0FB680C335C
:100F80001A78BB681A707B68013B7B60BB680133D1
:100F9000BB607B68002BD3D100BF00BF1037BD46BC
:100FA00080BD00000A4B10B50446186818B183696B
:100FB0000BB900F0FBFA132C07D8064850F8342080
:100FC000013202D000EBC40010BD0020FCE700BFDE
:100FD0000800002098000020F8B5431C044609D101
:100FE00000F086FA13260546002730463946ABBE88
:100FF00006462E602046F8BDF8B5044600F078FAA3
:1010000013260546002730463946ABBE06462E60FD
:101010002046F8BD30B585B0CDE901010392062424
:1010200001AD20462946ABBE04462046FFF7D4FF5B
:1010300005B030BD70B50E461546FFF7B3FF044648
:1010400030B900F055FA092303604FF0FF3070BD4E
:1010500000682A463146FFF7DDFF431C1FBF636867
:10106000281A1B186360F2E7F7B50C461646FFF71F
:1010700099FF054640B900F03BFA092303604FF0A1
:10108000FF34204603B0F0BD022E03D900F030FA41
:101090001623F3E7012E12D14368E418F6D42B6827
:1010A0000A26CDE900346F4630463946ABBE0646C7
:1010B0003046FFF791FF0028E1DB6C60E1E7022E8C
:1010C000EDD1036800930C266F4630463946ABBE1F
:1010D00006463046FFF780FF431CD0D00444DEE7CD
:1010E000FFF7C2BF30B585B0CDE9010103920524F9
:1010F00001AD20462946ABBE04462046FFF76CFFF3
:1011000005B030BD70B50E461546FFF74BFF0446DF
:1011100030B900F0EDF9092303604FF0FF3070BDE6
:1011200000682A463146FFF7DDFF031EF5DB6268E3
:10113000E81A0244AB426260F1D1BDE87040002081
:10114000FFF75ABF37B50224019001AD204629466A
:10115000ABBE04462046FFF73FFF03B030BD0000A2
:1011600038B50546FFF71EFF044630B900F0C0F958
:10117000092303604FF0FF3038BD013D012D09D830
:10118000094B9A681B699A4204D14FF0FF33036000
:101190000020F1E72068FFF7D5FF0028ECD14FF0E1
:1011A000FF332360E8E700BF9800002070B50C46CD
:1011B000FFF7F8FE054630B900F09AF909230360FD
:1011C0004FF0FF3070BD636843F4005363604FF429
:1011D0008063A3640C2630462946ABBE05462846EC
:1011E000FFF7FAFE431C1CBF20610020EAE70B4614
:1011F00010B5002104465822184600F09CFA01461A
:101200002046BDE81040FFF7D1BF38B50D46044673
:1012100058220021284600F08EFA2046002100F0D6
:1012200011F8431C04460BD06B6843F401436B6018
:101230002946FFF7BBFF05462046FFF791FF2C46E6
:10124000204638BD2DE9F0432A4B97B081460F4622
:1012500000251E4653F83540611C37D00135142D4A
:10126000F8D100F045F9182303604FF0FF343DE05A
:10127000C7F3004440F20163BA0748BF44F00204D8
:101280001F4218BF44F004043B0748BF24F0040485
:10129000484648BF44F00804CDF80090FEF798FF98
:1012A000CDE90140012420464146ABBE0446002C56
:1012B00007DB46F8354006EBC506002373602C4675
:1012C00014E02046FFF798FE04460FE007F4206381
:1012D000B3F5206FE846CBD141464846FFF795FF6E
:1012E0000130C5D000F004F911230360204617B087
:1012F000BDE8F083980000202DE9F74306460F462D
:101300002A4800211546FFF79DFF2A460446002182
:10131000304600F010FA631C16D02046FFF742FE5C
:101320004FF00C08814640464946ABBE80464046D9
:10133000FFF752FE032802DDC31EAB4208DC204645
:10134000FFF70EFF4FF0FF34204603B0BDE8F083F7
:1013500004220DEB02012046FFF76CFE0328EEDDB0
:101360009DF80430532BEAD19DF80530482BE6D187
:101370009DF80630462BE2D19DF80730422BDED196
:10138000012239462046FFF76FFE0028D7DB2A46A8
:1013900031462046FFF74EFE05462046FFF7E0FEA9
:1013A0002846FFF719FE0446CEE700BF7725000860
:1013B00037B50A4D0A4C0021012201A8296022609C
:1013C000FFF79AFF002807DD9DF8043003F00102C3
:1013D00003F002032A60236003B030BD0000002048
:1013E0000400002010B5044C2268002A01DAFFF73F
:1013F000DFFF206810BD00BF040000202DE9F04F82
:1014000085B0DFF8B090CDF8049003230024039357
:101410000DF104080294012528464146ABBE05465D
:10142000204E214A356023464FF0FF31144642F8E2
:1014300033100133142BFAD1FFF7D4FF1B4DD0B179
:101440004FF0030A0423CDF804900127CDF80CA037
:10145000029338464146ABBE8346154BCDF8049007
:10146000C3F800B00823CDF80CA0029338464146DB
:10147000ABBE07462F602B68013302BF0C4B1B68C5
:101480002B603368236000266660FFF7ABFF30B146
:10149000074B1B68C4E902362B68C4E9043605B063
:1014A000BDE8F08F90000020980000208C00002004
:1014B000940000208D25000870B5FFF773FD092505
:1014C000044620B900F014F80560204670BD284697
:1014D0002146ABBE0446012CF7D000F009F80024E9
:1014E0000546132630462146ABBE06462E60ECE785
:1014F000014B1868704700BF08000020002310B59A
:101500000446C0E90033C0E9043383608181436647
:10151000C2818361194608225C3000F00CF9054B4A
:101520006362054BA362054BE362054B24622363B0
:1015300010BD00BF391900085B1900089319000895
:10154000B7190008014900F0AFB800BF911C0008AE
:1015500070B54A1E682555430E4605F1740100F02A
:10156000F3F8044640B10021C0E900160C30A06039
:1015700005F1680200F0DFF8204670BD014800F078
:10158000D8B800BF48010020014800F0D3B800BF20
:1015900048010020014800F0CCB800BF4301002002
:1015A000014800F0C7B800BF4301002010B5044651
:1015B000FFF7F0FFA3691BB1BDE81040FFF7F0BFD4
:1015C000C4E912332365134B134A1B68A262A3427A
:1015D00004BF0123A361204600F020F8606020468C
:1015E00000F01CF8A060204600F018F80022E0602F
:1015F00004216068FFF782FFA06801220921FFF73C
:101600007DFFE06802221221FFF778FF0123A3612A
:10161000D2E700BFF425000845150008F8B50746D5
:10162000FFF7ACFF1E4B1E68B36913B93046FFF7D6
:10163000BDFF4836D6E90134013B03D533680BB30F
:101640003668F7E7B4F90C50D5B9164BE36004F1EE
:101650005800656600F06CF8FFF796FFC4E9015585
:10166000C4E904552560A5610822294604F15C00FF
:1016700000F061F8C4E90D55C4E912552046F8BDE3
:101680006834D9E704213846FFF762FF044630602A
:101690000028D5D1FFF778FF0C233B60EEE700BFB1
:1016A000F42500080100FFFF2DE9F84306468846AF
:1016B00000F148040027D4E90195B9F1010905D5E5
:1016C0002468002CF7D13846BDE8F883AB89012B9C
:1016D00007D9B5F90E30013303D029463046C0474B
:1016E00007436835E9E7000070B50D4D0D4C641BEC
:1016F000A4100026A64209D10B4D0C4C00F0F4FEBC
:10170000641BA4100026A64205D170BD55F8043B09
:1017100098470136EEE755F8043B98470136F2E763
:101720002C2600082C2600082C260008302600084D
:1017300070477047704702440346934200D1704798
:1017400003F8011BF9E70000F8B5CD1C25F00305EF
:1017500008350C2D38BF0C25002D064601DBA942AB
:1017600003D90C2333600020F8BD00F043FB21496E
:101770000A6814469CB9204F3B6823B9214630467D
:1017800000F0CAF838602946304600F0C5F8431C1E
:1017900023D10C233360304600F032FBE3E72368AB
:1017A0005B1B17D40B2B03D923601C44256004E07A
:1017B0006368A2420CBF0B605360304600F020FB10
:1017C00004F10B00231D20F00700C21ACCD01B1A15
:1017D000A350C9E722466468CCE7C41C24F0030484
:1017E000A042E3D0211A304600F096F80130DDD156
:1017F000CFE700BF380100203C0100200FB40A4BA6
:1018000013B51C6824B1A36913B92046FFF7CEFEB7
:1018100005AB049AA1680193204600F06DFB02B06D
:10182000BDE8104004B070470800002070B50E46B7
:10183000054618B183690BB9FFF7B8FEAB69AC6810
:1018400013B92846FFF7B2FE2C4B9C4220D16C689E
:10185000636EDB0705D4A389980502D4A06DFFF75A
:1018600068FFA38919071DD52369DBB1013EA36871
:1018700016F8011F013BA36039BB002B38DA224662
:101880000A21284600F09CF8013011D00A2511E009
:101890001B4B9C4201D1AC68DAE71A4B9C4208BF53
:1018A000EC68D5E72146284600F0EEF80028DDD0A8
:1018B0004FF0FF35636EDA0705D4A3899B0502D488
:1018C000A06DFFF737FF284670BD002B04DAA26930
:1018D0009A4206DC0A2904D023685A1C2260197037
:1018E000C5E72246284600F06BF80130BFD1DFE79C
:1018F00023680A255A1C22601D70DBE7B425000806
:10190000D425000894250008024B01461868FFF70B
:101910008DBF00BF0800002038B5064D00230446E7
:1019200008462B60FEF73CFF431C02D12B6803B135
:10193000236038BD4C01002010B50C46B1F90E10E3
:1019400000F09EFD0028ABBF636DA3891B1823F434
:101950008053ACBF6365A38110BD2DE9F0411F46E4
:101960008B89DB0505460C46164605D5B1F90E10E8
:101970000223002200F0C8F9A389B4F90E1023F461
:101980008053A38132463B462846BDE8F04100F033
:1019900069B810B50C46B1F90E1000F0B5F9431C4A
:1019A000A38915BF606523F4805343F48053A3815A
:1019B00018BFA38110BDB1F90E1000F0D3B800001C
:1019C000F8B50E461446054618B183690BB9FFF702
:1019D000EDFD214B9C422BD16C68A369A360A389C8
:1019E0001A072FD523696BB323692068C01A63696E
:1019F000F6B28342374604DC2146284600F048F917
:101A000030BBA368013BA36023685A1C22601E7090
:101A100063690130834204D0A389DB0706D50A2E0F
:101A200004D12146284600F033F988B93846F8BD7C
:101A30000A4B9C4201D1AC68CFE7094B9C4208BFDE
:101A4000EC68CAE72146284600F01EF80028CBD0F3
:101A50004FF0FF37EAE700BFB4250008D42500089F
:101A60009425000838B5074D044608461146002263
:101A70002A601A46FFF746FB431C02D12B6803B1CC
:101A8000236038BD4C010020324B70B51D680646FE
:101A90000C4625B1AB6913B92846FFF787FD2E4BDD
:101AA0009C420FD16C68A389B4F90C2019072CD47F
:101AB000DD0611D40923336042F04003A3814FF0C7
:101AC000FF303EE0254B9C4201D1AC68EBE7244B54
:101AD0009C4208BFEC68E6E7580712D5616B41B13C
:101AE00004F14403994202D0304600F08FF90023FC
:101AF0006363A38923F02403A38100236360236924
:101B00002360A38943F00803A38123694BB9A38908
:101B100003F42073B3F5007F03D02146304600F074
:101B200029F9A089B4F90C2010F001030AD0002390
:101B3000A36063695B42A361236943B910F080002D
:101B4000BAD170BD810758BF6369A360F4E7002074
:101B5000F7E700BF08000020B4250008D4250008DE
:101B60009425000838B5064D0023044608462B602E
:101B7000FFF7F6FA431C02D12B6803B1236038BD8E
:101B80004C0100208A892DE9F041054610070C46DA
:101B900058D44B68002B05DC0B6C002B02DC0020BA
:101BA000BDE8F081E66A002EF9D0002312F48052DD
:101BB0002F682B6032D0606DA3895A0705D5636802
:101BC000C01A636B0BB1236CC01A00230246E66A8D
:101BD000216A2846B047431CA38906D129681D29DC
:101BE0002CD82A4ACA40D60728D500226260D904D8
:101BF0002269226004D5421C01D12B6803B96065BB
:101C0000616B2F600029CAD004F14403994202D0CD
:101C1000284600F0FBF800206063C1E7216A012339
:101C20002846B047411CC7D12B68002BC4D01D2BC0
:101C300001D0162B01D12F60B1E7A38943F04003F7
:101C4000A381ADE70F69002FA9D093070E6808BFE5
:101C50004B690F6018BF0023A6EB07088B60B8F133
:101C6000000F9CDD216AA66A43463A462846B047E3
:101C7000002806DCA38943F04003A3814FF0FF3026
:101C80008EE70744A8EB0008E9E700BF0100402009
:101C900038B50B6905460C4613B90025284638BDF2
:101CA00018B183690BB9FFF781FC144B9C421BD11F
:101CB0006C68B4F90C30002BEFD0626ED00704D4FE
:101CC000990502D4A06DFFF734FD28462146FFF7A1
:101CD00059FF636EDA070546E0D4A3899B05DDD47E
:101CE000A06DFFF727FDD9E7054B9C4201D1AC68F9
:101CF000DFE7044B9C4208BFEC68DAE7B425000834
:101D0000D42500089425000838B5074D0446084638
:101D1000114600222A601A46FFF7E2F9431C02D15D
:101D20002B6803B1236038BD4C01002070B50E460E
:101D3000B1F90E10002996B014461D4607DA0023AB
:101D40002B60B3891A0610D44FF480630EE06A4604
:101D500000F0A8FB0028F2DB019A02F47042A2F521
:101D600000535A425A412A60EEE740230020236084
:101D700016B070BD8B8973B59D0706460C4607D516
:101D800004F14703236023610123636102B070BD46
:101D900001AB6A46FFF7CAFF009905463046FFF7D8
:101DA000D3FC48B9B4F90C309A05EFD423F00303FF
:101DB00043F00203A381E3E70D4BB362A3892060E4
:101DC00043F08003A381009B6361019B20615BB1B1
:101DD000B4F90E10304600F077FB28B1A38923F048
:101DE000030343F00103A381A0890543A581CDE747
:101DF000451500080148FFF79CBC00BF44010020C6
:101E00000148FFF797BC00BF4401002038B50546E4
:101E1000002945D051F8043C0C1F002BB8BFE41832
:101E2000FFF7E8FF1F4A1368104633B96360146078
:101E30002846BDE83840FFF7E3BFA3420BD921682D
:101E40006218934204BF1A685B68636004BF52184B
:101E500022600460ECE71A465B680BB1A342FAD932
:101E600011685018A0420BD12068014450188342D9
:101E70001160DDD118685B68536001441160D7E7D9
:101E800002D90C232B60D3E7206821188B4204BFB2
:101E900019685B68636004BF091821605460C7E774
:101EA00038BD00BF380100209368013B002B10B4FF
:101EB000936007DA9469A34201DB0A2902D110BCBE
:101EC000FFF77EBD1368581C10601970084610BCDF
:101ED0007047F8B506460F461446D518AC4201D1F6
:101EE000002007E014F8011B3A463046FFF7DCFFFC
:101EF000431CF3D1F8BD00002DE9F04F0D469DB015
:101F000014469846064618B183690BB9FFF74EFB95
:101F1000894B9D421BD175686B6ED90705D4AB897F
:101F20009A0502D4A86DFFF704FCAB891B0701D505
:101F30002B69EBB929463046FFF7A6FDC0B16B6EA1
:101F4000DC070ED54FF0FF301DB0BDE8F08F7B4BA6
:101F50009D4201D1B568DFE7794B9D4208BFF56826
:101F6000DAE7AB899805EDD4A86DFFF7E3FBE9E765
:101F70000023099320238DF82930CDF80C803023DD
:101F8000DFF8C0818DF82A304FF0010923469A46C8
:101F900013F8012B0AB1252AF9D1BAEB040B0BD0A7
:101FA0005B46224629463046FFF793FF013000F09A
:101FB000AA80099A5A4409929AF80030002B00F03E
:101FC000A28000234FF0FF32CDE905230AF1010A78
:101FD000049307938DF853301A935446052214F84E
:101FE000011B5848FEF7FCF8049AD8B9D10644BF43
:101FF00020238DF85330130744BF2B238DF8533023
:102000009AF800302A2B15D0079A544600204FF03A
:102010000A0C214611F8013B303B092B4ED9B0B1D7
:10202000079214E0A0EB080309FA03F313430493A7
:10203000A246D2E7039B191D1B680391002BBBBF6F
:102040005B4242F0020207930793B8BF04922378E1
:102050002E2B0CD163782A2B35D1039B1A1D1B68BC
:102060000392002BB8BF4FF0FF3302340593DFF823
:10207000E4A0217803225046FEF7B2F840B1402395
:10208000A0EB0A0003FA00F0049B0343013404931D
:1020900014F8011B2C488DF828100622FEF7A0F832
:1020A00000283FD0294B1BBB039B073323F00703BA
:1020B00008330393099B3B44099367E70CFB023207
:1020C0000C460120A5E700230134059319464FF083
:1020D0000A0C204610F8012B303A092A03D9002BAC
:1020E000C5D00591C3E70CFB012104460123F0E7AD
:1020F00003AB00932A46164B04A93046AFF3008089
:102100000746781CD6D16B6ED90705D4AB899A05E2
:1021100002D4A86DFFF70EFBAB895B063FF512AF4B
:10212000099811E703AB00932A46094B04A93046EE
:1021300000F080F8E4E700BFB4250008D4250008CB
:1021400094250008F8250008022600080000000079
:10215000D31E0008FE2500082DE9F04716469946D3
:102160008A680B69DDF820809342B8BF134633605C
:1021700091F8432007460C460AB1013333602368C7
:10218000990642BF336802333360256815F00605AF
:1021900006D104F1190AE36832689B1AAB4226DCC7
:1021A00094F84320131E226818BF012392062BD4F3
:1021B00004F1430249463846C04701301ED0236827
:1021C000E568326803F00603042B08BFAD1AA36864
:1021D00022690CBF25EAE57500259342C4BF9B1A0E
:1021E000ED1800261A34B5421AD1002008E0012368
:1021F000524649463846C047013003D14FF0FF30C0
:10220000BDE8F0870135C6E7E1185A1C302081F897
:102210004300224494F8451082F843100233C7E784
:102220000123224649463846C0470130E6D00136F0
:10223000D9E700002DE9FF470C469146277E0C990F
:10224000782F80469A4604F1430207D8622F0AD8B5
:10225000002F00F0D880582F00F0A38004F1420630
:1022600084F842703AE0A7F16303152BF6D801A079
:1022700050F823F0CD220008E12200085D2200087A
:102280005D2200085D2200085D220008E1220008AE
:102290005D2200085D2200085D2200085D22000822
:1022A000ED23000811230008CF2300085D22000859
:1022B0005D2200080F2400085D2200081123000899
:1022C0005D2200085D220008D72300080B681A1D54
:1022D0001B680A6004F1420684F842300123A3E03F
:1022E000256808682E0600F104030AD505680B600E
:1022F000002D03DA2D236D4284F843305E480A2313
:1023000019E015F0400F05680B6018BF2DB2EFE71C
:102310000B682568181D0860280601D51D6802E0B5
:102320006906FBD51D8854486F2F0CBF08230A236C
:10233000002184F843106668A660002EA2BF2168C1
:1023400021F0040121600DB9002E4DD01646B5FBD9
:10235000F3F103FB1157C75D06F8017D2F46BB4221
:102360000D46F4D9082B0BD12368DF0708D5236964
:1023700061689942DEBF302306F8013C06F1FF3662
:10238000921B2261CDF800A04B4603AA214640468D
:10239000FFF7E2FE01304CD14FF0FF3004B0BDE852
:1023A000F087354884F8457023680E681F0656F894
:1023B000045B0E6014D5D90744BF43F020032360AB
:1023C0001DB9236823F0200323601023B0E723689E
:1023D00043F0200323607823284884F84530E3E75E
:1023E0005E0648BFADB2E6E71646BBE70B68266857
:1023F00060691D1D0D6035061B6801D5186002E07F
:102400007106FBD51880002323611646BAE70B68D6
:102410001A1D0A601E68626800213046FDF7E0FE62
:1024200008B1801B606063682361002384F8433037
:10243000A8E72369324649464046D0470130ABD031
:1024400023689B0713D4E068039B9842B8BF1846E3
:10245000A4E70123324649464046D04701309BD08D
:102460000135E36803995B1AAB42F2DCEBE7002528
:1024700004F11906F5E700BF092600081A2600082E
:1024800038B5074D04460846114600222A601A4610
:10249000FEF7D0FD431C02D12B6803B1236038BD89
:1024A0004C01002038B5074D00230446084611466C
:1024B0002B60FEF79CFE431C02D12B6803B1236006
:1024C00038BD00BF4C01002038B5064D002304463E
:1024D00008462B60FEF7F0FF431C02D12B6803B1C6
:1024E000236038BD4C010020F8B500BFF8BC08BC23
:1024F0009E467047F8B500BFF8BC08BC9E467047C2
:1025000020486F6C61206D756E646F0A00000000DA
:1025100053504920696E697469616C697A6500007D
:10252000416E616C6F6720726561643A2025640AB0
:102530000000000050696E20392073746174653AA0
:102540002025640A0000000061636B3A2025752095
:102550000A000000436F6D6D616E64204944207273
:102560006561640064756D6D793A202575200A00F7
:1025700049442025730A003A73656D69686F737466
:10258000696E672D6665617475726573003A74745F
:10259000000000000000000000000000000000003B
:1025A000000000000000000000000000000000002B
:1025B000000000000000000000000000000000001B
:1025C000000000000000000000000000000000000B
:1025D00000000000000000000000000000000000FB
:1025E00000000000000000000000000000000000EB
:1025F000000000000C000020232D302B2000686C10
:102600004C00656667454647003031323334353615
:10261000373839414243444546003031323334354E
:0C2620003637383961626364656600007B
:04262C00B5010008EC
:04263000910100080C
:10263400FFFFFFFFFFFFFFFF0C0000200000000072
:10264400B4250008D42500089425000800000000E3
:102654000000000000000000000000000000000076
:102664000000000000000000000000000000000066
:102674000000000000000000000000000000000056
:102684000000000000000000000000000000000046
:0C2694000000000000000000000000003A
:040000050800080DDA
:00000001FF
