:020000040800F2
:1000000000800120390200088902000889020008E6
:100010008902000889020008890200080000000027
:10002000000000000000000000000000890200083D
:100030008902000800000000890200088902000807
:100040008902000889020008890200088902000864
:100050008902000889020008890200088902000854
:100060008902000889020008890200088902000844
:100070008902000889020008890200088902000834
:100080008902000889020008890200088902000824
:100090008902000889020008890200088902000814
:1000A0008902000889020008890200088902000804
:1000B00089020008890200088902000889020008F4
:1000C00089020008890200088902000889020008E4
:1000D00089020008890200088902000889020008D4
:1000E00089020008890200088902000889020008C4
:1000F00089020008890200088902000889020008B4
:1001000089020008890200088902000889020008A3
:100110008902000889020008890200088902000893
:100120008902000889020008890200088902000883
:100130008902000889020008890200088902000873
:100140008902000889020008890200088902000863
:100150008902000889020008890200088902000853
:100160008902000889020008890200088902000843
:100170008902000889020008890200088902000833
:08018000890200088902000851
:1001880010B5054C237833B9044B13B10448AFF3C9
:1001980000800123237010BD000000200000000033
:1001A8007805000808B5034B1BB103490348AFF3B2
:1001B800008008BD00000000040000207805000849
:1001C80080B483B000AF00237B6002E07B6801331A
:1001D8007B607B68044A9342F8D900BF00BF0C37A4
:1001E800BD4680BC704700BF8FD0030080B584B087
:1001F80000AF05233B7201237B7200233B7302236C
:10020800BB720023FB724FF090437B6001214FF0DB
:10021800904000F037F83B1D184600F0A9F805217A
:100228004FF0904000F06BF9FFF7CAFFF7E70000C6
:100238000D488546AFF300800C480D490D4A002350
:1002480002E0D458C4500433C4188C42F9D30A4A83
:100258000A4C002301E013600432A242FBD300F0F1
:1002680063F9FFF7C3FFFEE70080012000000020CC
:100278000000002098050008000000201C00002055
:10028800FEE7000080B483B000AF78600B46FB70D7
:10029800FB78012B56D17B68B3F1904F06D12C4BDC
:1002A800DB6C2B4A43F00103D3644BE07B68294A9B
:1002B800934206D1264BDB6C254A43F00203D364F4
:1002C80040E07B68244A934206D1214BDB6C204AEC
:1002D80043F00403D36435E07B68204A934206D197
:1002E8001B4BDB6C1A4A43F00803D3642AE07B6893
:1002F8001B4A934206D1164BDB6C154A43F0100398
:10030800D3641FE07B68174A934206D1104BDB6C1D
:100318000F4A43F02003D36414E07B68124A9342E7
:1003280006D10B4BDB6C0A4A43F04003D36409E067
:100338007B680E4A934205D1054BDB6C044A43F0B7
:100348008003D36400BF0C37BD4680BC704700BF34
:10035800001002400004004800080048000C004853
:10036800001000480014004800180048001C00480D
:1003780080B485B000AF78600023FB607B685B7950
:10038800032B21D87B685B791A467B681B795B0055
:1003980002FA03F3FB607B681B681A687B681B79A9
:1003A8005B00032101FA03F3DB4319467B681B68F2
:1003B8000A401A607B681B6819687B681B68FA68C2
:1003C8000A431A600023FB607B689B791A467B68A6
:1003D8001B795B0002FA03F3FB607B681B689A6871
:1003E8007B681B795B00032101FA03F3DB431946A1
:1003F8007B681B680A409A607B681B6899687B6801
:100408001B68FA680A439A600023FB607B681B7AC2
:100418001A467B681B7902FA03F3FB607B681B684A
:100428005A687B681B79194601238B40DB431946C0
:100438007B681B680A405A607B681B6859687B6840
:100448001B68FA680A435A600023FB607B68DB7903
:100458001A467B681B795B0002FA03F3FB607B6832
:100468001B68DA687B681B795B00032101FA03F3D8
:10047800DB4319467B681B680A40DA607B681B68A7
:10048800D9687B681B68FA680A43DA600023FB6056
:100498007B681B79DB08FB727B681B7903F0070319
:1004A800BB727B681B68FA7A083253F82210BB7A51
:1004B8009B000F2202FA03F3DB4318467B681B6894
:1004C800FA7A0140083243F822107B681B68FA7AEE
:1004D800083253F822107B685B7A1A46BB7A9B0075
:1004E80002FA03F318467B681B68FA7A014308325C
:1004F80043F8221000BF1437BD4680BC704780B453
:1005080083B000AF78600B46FB707B685B69FA7854
:10051800012101FA02F25A407B685A6100BF0C3788
:10052800BD4680BC7047000070B50D4D0D4C641B76
:10053800A4100026A64209D10B4D0C4C00F018F867
:10054800641BA4100026A64205D170BD55F8043BD3
:1005580098470136EEE755F8043B98470136F2E72D
:10056800900500089005000890050008940500080B
:10057800F8B500BFF8BC08BC9E467047F8B500BF88
:08058800F8BC08BC9E46704758
:04059000AD010008B1
:0405940089010008D1
:0400000508000239B4
:00000001FF
