:020000040800F2
:100000000080012071020008C1020008C10200083E
:10001000C1020008C1020008C1020008000000007F
:10002000000000000000000000000000C102000805
:10003000C102000800000000C1020008C10200085F
:10004000C1020008C1020008C1020008C102000884
:10005000C1020008C1020008C1020008C102000874
:10006000C1020008C1020008C1020008C102000864
:10007000C1020008C1020008C1020008C102000854
:10008000C1020008C1020008C1020008C102000844
:10009000C1020008C1020008C1020008C102000834
:1000A000C1020008C1020008C1020008C102000824
:1000B000C1020008C1020008C1020008C102000814
:1000C000C1020008C1020008C1020008C102000804
:1000D000C1020008C1020008C1020008C1020008F4
:1000E000C1020008C1020008C1020008C1020008E4
:1000F000C1020008C1020008C1020008C1020008D4
:10010000C1020008C1020008C1020008C1020008C3
:10011000C1020008C1020008C1020008C1020008B3
:10012000C1020008C1020008C1020008C1020008A3
:10013000C1020008C1020008C1020008C102000893
:10014000C1020008C1020008C1020008C102000883
:10015000C1020008C1020008C1020008C102000873
:10016000C1020008C1020008C1020008C102000863
:10017000C1020008C1020008C1020008C102000853
:08018000C1020008C1020008E1
:1001880010B5054C237833B9044B13B10448AFF3C9
:1001980000800123237010BD000000200000000033
:1001A8005407000808B5034B1BB103490348AFF3D4
:1001B800008008BD0000000004000020540700086B
:1001C80080B483B000AF00237B6002E07B6801331A
:1001D8007B607B68044A9342F8D900BF00BF0C37A4
:1001E800BD4680BC704700BFBFD4010080B586B053
:1001F80000AF05233B7401237B7400233B75022366
:10020800BB740023FB744FF09043FB6001214FF057
:10021800904000F053F807F10C03184600F0C4F8BA
:1002280009233B7100237B710223BB710023FB71FF
:100238004FF090433B6001214FF0904000F03EF8B2
:100248003B46184600F0B0F809214FF0904000F006
:100258002FFA0346002BF7D105214FF0904000F00C
:100268003CFAFFF7ADFFEFE70D488546AFF3008096
:100278000C480D490D4A002302E0D458C4500433F9
:10028800C4188C42F9D30A4A0A4C002301E01360CF
:100298000432A242FBD300F035FAFFF7A7FFFEE7CE
:1002A80000800120000000200000002074070008E2
:1002B800000000201C000020FEE7000080B483B08E
:1002C80000AF78600B46FB70FB78012B56D17B683A
:1002D800B3F1904F06D12C4BDB6C2B4A43F0010352
:1002E800D3644BE07B68294A934206D1264BDB6CEA
:1002F800254A43F00203D36440E07B68244A9342D2
:1003080006D1214BDB6C204A43F00403D36435E06B
:100318007B68204A934206D11B4BDB6C1A4A43F098
:100328000803D3642AE07B681B4A934206D1164B24
:10033800DB6C154A43F01003D3641FE07B68174A4F
:10034800934206D1104BDB6C0F4A43F02003D36471
:1003580014E07B68124A934206D10B4BDB6C0A4AC5
:1003680043F04003D36409E07B680E4A934205D109
:10037800054BDB6C044A43F08003D36400BF0C37A1
:10038800BD4680BC704700BF001002400004004812
:1003980000080048000C00480010004800140048FD
:1003A80000180048001C004880B487B000AF78608F
:1003B80000237B617B685B79032B22D87B685B79A0
:1003C8001A467B681B795B0002FA03F37B617B6842
:1003D8001B681A687B681B795B00032101FA03F329
:1003E800DB4319467B681B680A401A607B681B68F8
:1003F80019687B681B687A690A431A6000237B6165
:10040800A8E07B685B79042B17D1A04BDB687A687E
:100418001279114601228A4011469C4A0B43D36047
:100428009A4B9B687A681279114601228A40D24316
:100438001146964A0B40936035E07B685B79052B43
:1004480017D1924B9B687A681279114601228A402B
:1004580011468E4A0B4393608C4BDB687A6812799D
:10046800114601228A40D2431146884A0B40D36084
:1004780019E07B685B79062B15D1844BDB687A68B9
:100488001279114601228A401146804A0B43D360F3
:100498007E4B9B687A681279114601228A40114680
:1004A8007A4A0B4393607B681B68B3F1904F2BD05B
:1004B8007B681B68764A934224D07B681B68754A20
:1004C80093421DD07B681B68734A934216D07B68A1
:1004D8001B68724A93420FD07B681B68704A93422C
:1004E80008D07B681B686F4A934201D106230CE051
:1004F80007230AE0052308E0042306E0032304E0B9
:10050800022302E0012300E00023FB747B681B79CF
:100518009B08BB747B681B7903F003037B74FA7C2C
:100528007B7C9B0002FA03F15F4ABB7C023342F8F2
:1005380023105E4B1B6E5D4A43F001031366534B59
:100548001B687A681279114601228A4011464F4A7F
:100558000B4313607B689B791A467B681B795B00A9
:1005680002FA03F37B617B681B689A687B681B79D6
:100578005B00032101FA03F3DB4319467B681B6820
:100588000A409A607B681B6899687B681B687A696F
:100598000A439A6000237B617B681B7A1A467B6852
:1005A8001B7902FA03F37B617B681B685A687B68D6
:1005B8001B79194601238B40DB4319467B681B686E
:1005C8000A405A607B681B6859687B681B687A69AF
:1005D8000A435A6000237B617B68DB791A467B6893
:1005E8001B795B0002FA03F37B617B681B68DA689E
:1005F8007B681B795B00032101FA03F3DB4319468F
:100608007B681B680A40DA607B681B68D9687B686E
:100618001B687A690A43DA6000237B617B681B796F
:10062800DB083B747B681B7903F00703FB737B686B
:100638001B683A7C083253F82210FB7B9B000F2280
:1006480002FA03F3DB4318467B681B683A7C0140D7
:10065800083243F822107B681B683A7C083253F84A
:1006680022107B685B7A1A46FB7B9B0002FA03F335
:1006780018467B681B683A7C0143083243F822100D
:1006880000BF1C37BD4680BC704700BF0004014056
:100698000004004800080048000C0048001000480A
:1006A80000140048001800480000014000100240F3
:1006B80080B485B000AF78600B46FB707B681A6920
:1006C800FB7822FA03F3DBB203F00103FB73FB7B35
:1006D80018461437BD4680BC704780B483B000AF5D
:1006E80078600B46FB707B685B69FA78012101FA38
:1006F80002F25A407B685A6100BF0C37BD4680BC85
:100708007047000070B50D4D0D4C641BA4100026F9
:10071800A64209D10B4D0C4C00F018F8641BA4102C
:100728000026A64205D170BD55F8043B984701360E
:10073800EEE755F8043B98470136F2E76C070008E6
:100748006C0700086C07000870070008F8B500BFC0
:10075800F8BC08BC9E467047F8B500BFF8BC08BC9A
:040768009E467047F2
:04076C00AD010008D3
:0407700089010008F3
:04000005080002717C
:00000001FF
