:020000040800F2
:10000000008001208D020008DD020008DD020008EA
:10001000DD020008DD020008DD020008000000002B
:10002000000000000000000000000000DD020008E9
:10003000DD02000800000000DD020008DD0200080B
:10004000DD020008DD020008DD020008DD02000814
:10005000DD020008DD020008DD020008DD02000804
:10006000DD020008DD020008DD020008DD020008F4
:10007000DD020008DD020008DD020008DD020008E4
:10008000DD020008DD020008DD020008DD020008D4
:10009000DD020008DD020008DD020008DD020008C4
:1000A000DD020008DD020008DD020008DD020008B4
:1000B000DD020008DD020008DD020008DD020008A4
:1000C000DD020008DD020008DD020008DD02000894
:1000D000DD020008DD020008DD020008DD02000884
:1000E000DD020008DD020008DD020008DD02000874
:1000F000DD020008DD020008DD020008DD02000864
:10010000DD020008DD020008DD020008DD02000853
:10011000DD020008DD020008DD020008DD02000843
:10012000DD020008DD020008DD020008DD02000833
:10013000DD020008DD020008DD020008DD02000823
:10014000DD020008DD020008DD020008DD02000813
:10015000DD020008DD020008DD020008DD02000803
:10016000DD020008DD020008DD020008DD020008F3
:10017000DD020008DD020008DD020008DD020008E3
:08018000DD020008DD020008A9
:1001880010B5054C237833B9044B13B10448AFF3C9
:1001980000800123237010BD000000200000000033
:1001A8008809000808B5034B1BB103490348AFF39E
:1001B800008008BD00000000040000208809000835
:1001C80080B584B000AF02237B7205237B730023C4
:1001D8003B730023FB720223BB724FF090437B609A
:1001E80001214FF0904000F077F805233B723B1D4A
:1001F800184600F0E7F807233B723B1D184600F04D
:10020800E1F800BF1037BD4680BD000080B584B05E
:1002180000AF01210D4800F077FA0C4B7B600123F9
:100228003B7201237B720423BB730023BB72002340
:10023800FB7200233B7301237B733B1D184600F0C0
:1002480099FA00BF1037BD4680BD00BF003001409D
:1002580080B582B000AF4123BB80FFF7B1FFFFF745
:10026800D5FF0121064800F000FB0121044800F0F9
:10027800E1FA3B1D01221946014800F027FBF8E787
:10028800003001400D488546AFF300800C480D4909
:100298000D4A002302E0D458C4500433C4188C42D9
:1002A800F9D30A4A0A4C002301E013600432A2423F
:1002B800FBD300F041FBFFF7CBFFFEE700800120F6
:1002C8000000002000000020A8090008000000200D
:1002D8001C000020FEE7000080B483B000AF786007
:1002E8000B46FB70FB78012B56D17B68B3F1904F1E
:1002F80006D12C4BDB6C2B4A43F00103D3644BE053
:100308007B68294A934206D1264BDB6C254A43F089
:100318000203D36440E07B68244A934206D1214B10
:10032800DB6C204A43F00403D36435E07B68204A41
:10033800934206D11B4BDB6C1A4A43F00803D36483
:100348002AE07B681B4A934206D1164BDB6C154AA0
:1003580043F01003D3641FE07B68174A934206D129
:10036800104BDB6C0F4A43F02003D36414E07B6826
:10037800124A934206D10B4BDB6C0A4A43F0400306
:10038800D36409E07B680E4A934205D1054BDB6CC8
:10039800044A43F08003D36400BF0C37BD4680BCD9
:1003A800704700BF001002400004004800080048E1
:1003B800000C0048001000480014004800180048CD
:1003C800001C004880B487B000AF786000237B61D0
:1003D8007B685B79032B22D87B685B791A467B683C
:1003E8001B795B0002FA03F37B617B681B681A6860
:1003F8007B681B795B00032101FA03F3DB43194691
:100408007B681B680A401A607B681B6819687B68F0
:100418001B687A690A431A6000237B61D2E07B6813
:100428005B79042B17D14D4BDB687A68127911463A
:1004380001228A401146494A0B43D360474B9B68C7
:100448007A681279114601228A40D2431146434AFA
:100458000B40936035E07B685B79052B17D13F4BE8
:100468009B687A681279114601228A4011463B4AF4
:100478000B439360394BDB687A6812791146012285
:100488008A40D2431146354A0B40D36019E07B6855
:100498005B79062B15D1314BDB687A6812791146E6
:1004A80001228A4011462D4A0B43D3602B4B9B688F
:1004B8007A681279114601228A401146274A0B436D
:1004C800936000237B617B681B681A687B681B79D3
:1004D8005B00032101FA03F3DB4319467B681B68C1
:1004E8000A401A607B681B6819687B681B687A6910
:1004F8000A431A6000237B617B681B68B3F1904F45
:100508003AD07B681B68164A934224D07B681B68E4
:10051800144A93421DD07B681B68134A934216D035
:100528007B681B68114A93420FD07B681B68104A8E
:10053800934208D07B681B680E4A934201D1062378
:100548001BE0072319E0052317E0042315E0032324
:1005580013E0022311E001230FE000BF0004014073
:100568000004004800080048000C0048001000483B
:1005780000140048001800480023FB747B681B79AE
:100588009B08BB747B681B7903F003037B74FA7CBC
:100598007B7C9B0002FA03F1584ABB7C023342F889
:1005A8002310574B1B6E564A43F001031366554BF5
:1005B8001B687A681279114601228A401146514A0D
:1005C8000B4313607B689B791A467B681B795B0039
:1005D80002FA03F37B617B681B689A687B681B7966
:1005E8005B00032101FA03F3DB4319467B681B68B0
:1005F8000A409A607B681B6899687B681B687A69FF
:100608000A439A6000237B617B681B7A1A467B68E1
:100618001B7902FA03F37B617B681B685A687B6865
:100628001B79194601238B40DB4319467B681B68FD
:100638000A405A607B681B6859687B681B687A693E
:100648000A435A6000237B617B68DB791A467B6822
:100658001B795B0002FA03F37B617B681B68DA682D
:100668007B681B795B00032101FA03F3DB4319461E
:100678007B681B680A40DA607B681B68D9687B68FE
:100688001B687A690A43DA6000237B617B681B79FF
:10069800DB083B747B681B7903F00703FB737B68FB
:1006A8001B683A7C083253F82210FB7B9B000F2210
:1006B80002FA03F3DB4318467B681B683A7C014067
:1006C800083243F822107B681B683A7C083253F8DA
:1006D80022107B685B7A1A46FB7B9B0002FA03F3C5
:1006E80018467B681B683A7C0143083243F822109D
:1006F80000BF1C37BD4680BC704700BF00000140EA
:10070800001002400004014080B483B000AF78605C
:100718000B46FB70FB78012B1FD17B68114A934273
:1007280006D1114B1B6E104A43F48053136614E034
:100738007B680E4A934206D10B4B9B6D0A4A43F4E1
:100748008043936509E07B68094A934205D1064BCB
:100758009B6D054A43F40043936500BF0C37BD46C3
:1007680080BC704700300140001002400038004053
:10077800003C004080B485B000AF78600023FB6087
:100788007B681B799B001A46FB681343FB607B68F8
:100798005B79012B04D1FB6823F40043FB6014E070
:1007A8007B685B79022B04D1FB6843F40043FB6050
:1007B8000BE07B685B79032B07D1FB6823F40043CC
:1007C800FB60FB6843F48063FB607B68DB791A4657
:1007D800FB681343FB607B681B7A5B001A46FB6867
:1007E8001343FB607B689B79DB021A46FB68134363
:1007F800FB607B689B7ADB001A46FB681343FB604F
:100808007B685B7A5B021A46FB681343FB607B6874
:100818001B681B687A68126823F4FF4323F07F0380
:1008280013607B681B68FA681A6000BF1437BD46FE
:1008380080BC704780B483B000AF78600B46FB7013
:10084800FB78012B06D17B681B6843F040027B686C
:100858001A6005E07B681B6823F040027B681A6019
:1008680000BF0C37BD4680BC704780B483B000AF72
:1008780078600B46FB70FB78012B06D17B681B6800
:1008880043F480727B681A6005E07B681B6823F478
:1008980080727B681A6000BF0C37BD4680BC704709
:1008A80080B483B000AF786039607B689B680121B1
:1008B8003A6801FA02F21340002B01D0012300E04C
:1008C800002318460C37BD4680BC704780B584B0FD
:1008D80000AFF860B9607A6026E000BF0121F868CF
:1008E800FFF7DEFF0346002BF8D0FB681B6803F414
:1008F8000063002B0DD0BB681B881A46FB68DA60C2
:100908007B68013B7B607B68013B7B60BB68013394
:10091800BB60BB681B781A46FB68DA607B68013BE2
:100928007B60BB680133BB607B68002BD5D100BFFF
:1009380000BF1037BD4680BD70B50D4D0D4C641B12
:10094800A4100026A64209D10B4D0C4C00F018F853
:10095800641BA4100026A64205D170BD55F8043BBF
:1009680098470136EEE755F8043B98470136F2E719
:10097800A0090008A0090008A0090008A4090008A7
:10098800F8B500BFF8BC08BC9E467047F8B500BF74
:08099800F8BC08BC9E46704744
:0409A000AD0100089D
:0409A40089010008BD
:040000050800028D60
:00000001FF
