:020000040800F2
:100000000080012079020008C9020008C902000826
:10001000C9020008C9020008C90200080000000067
:10002000000000000000000000000000C9020008FD
:10003000C902000800000000C9020008C902000847
:10004000C9020008C9020008C9020008C902000864
:10005000C9020008C9020008C9020008C902000854
:10006000C9020008C9020008C9020008C902000844
:10007000C9020008C9020008C9020008C902000834
:10008000C9020008C9020008C9020008C902000824
:10009000C9020008C9020008C90200085B02000882
:1000A000C9020008C9020008C9020008C902000804
:1000B000C9020008C9020008C9020008C9020008F4
:1000C000C9020008C9020008C9020008C9020008E4
:1000D000C9020008C9020008C9020008C9020008D4
:1000E000C9020008C9020008C9020008C9020008C4
:1000F000C9020008C9020008C9020008C9020008B4
:10010000C9020008C9020008C9020008C9020008A3
:10011000C9020008C9020008C9020008C902000893
:10012000C9020008C9020008C9020008C902000883
:10013000C9020008C9020008C9020008C902000873
:10014000C9020008C9020008C9020008C902000863
:10015000C9020008C9020008C9020008C902000853
:10016000C9020008C9020008C9020008C902000843
:10017000C9020008C9020008C9020008C902000833
:08018000C9020008C9020008D1
:1001880010B5054C237833B9044B13B10448AFF3C9
:1001980000800123237010BD000000200000000033
:1001A800B408000808B5034B1BB103490348AFF373
:1001B800008008BD0000000004000020B40800080A
:1001C80080B483B000AF00237B6002E07B6801331A
:1001D8007B607B68044A9342F8D900BF00BF0C37A4
:1001E800BD4680BC704700BFBFD4010080B586B053
:1001F80000AF05233B7401237B7400233B75022366
:10020800BB740023FB744FF09043FB6001214FF057
:10021800904000F057F807F10C03184600F0C8F8B2
:1002280009233B7104237B710223BB710123FB71FA
:100238004FF090433B6001214FF0904000F042F8AE
:100248003B46184600F0B4F80121172000F066FA82
:10025800FEE780B500AFFFF7B3FF092000F0E2FA30
:1002680005214FF0904000F045FA00BF80BD000026
:100278000D488546AFF300800C480D490D4A002310
:1002880002E0D458C4500433C4188C42F9D30A4A43
:100298000A4C002301E013600432A242FBD300F0B1
:1002A800E1FAFFF7A3FFFEE700800120000000202D
:1002B80000000020D4080008000000201C000020D6
:1002C800FEE7000080B483B000AF78600B46FB7097
:1002D800FB78012B56D17B68B3F1904F06D12C4B9C
:1002E800DB6C2B4A43F00103D3644BE07B68294A5B
:1002F800934206D1264BDB6C254A43F00203D364B4
:1003080040E07B68244A934206D1214BDB6C204AAB
:1003180043F00403D36435E07B68204A934206D156
:100328001B4BDB6C1A4A43F00803D3642AE07B6852
:100338001B4A934206D1164BDB6C154A43F0100357
:10034800D3641FE07B68174A934206D1104BDB6CDD
:100358000F4A43F02003D36414E07B68124A9342A7
:1003680006D10B4BDB6C0A4A43F04003D36409E027
:100378007B680E4A934205D1054BDB6C044A43F077
:100388008003D36400BF0C37BD4680BC704700BFF4
:10039800001002400004004800080048000C004813
:1003A800001000480014004800180048001C0048CD
:1003B80080B487B000AF786000237B617B685B798D
:1003C800032B22D87B685B791A467B681B795B0014
:1003D80002FA03F37B617B681B681A687B681B79E8
:1003E8005B00032101FA03F3DB4319467B681B68B2
:1003F8000A401A607B681B6819687B681B687A6901
:100408000A431A6000237B61D2E07B685B79042B86
:1004180017D14D4BDB687A681279114601228A4060
:100428001146494A0B43D360474B9B687A68127957
:10043800114601228A40D2431146434A0B40936039
:1004480035E07B685B79052B17D13F4B9B687A6851
:100458001279114601228A4011463B4A0B439360A8
:10046800394BDB687A681279114601228A40D243F7
:100478001146354A0B40D36019E07B685B79062B3F
:1004880015D1314BDB687A681279114601228A400E
:1004980011462D4A0B43D3602B4B9B687A6812791F
:1004A800114601228A401146274A0B4393600023D4
:1004B8007B617B681B681A687B681B795B0003217A
:1004C80001FA03F3DB4319467B681B680A401A608C
:1004D8007B681B6819687B681B687A690A431A601D
:1004E80000237B617B681B68B3F1904F3AD07B682F
:1004F8001B68164A934224D07B681B68144A9342AF
:100508001DD07B681B68134A934216D07B681B6812
:10051800114A93420FD07B681B68104A934208D057
:100528007B681B680E4A934201D106231BE0072310
:1005380019E0052317E0042315E0032313E0022341
:1005480011E001230FE000BF00040140000400484F
:1005580000080048000C004800100048001400483B
:10056800001800480023FB747B681B799B08BB7448
:100578007B681B7903F003037B74FA7C7B7C9B000C
:1005880002FA03F1584ABB7C023342F82310574B56
:100598001B6E564A43F001031366554B1B687A6875
:1005A8001279114601228A401146514A0B431360C1
:1005B8007B689B791A467B681B795B0002FA03F318
:1005C8007B617B681B689A687B681B795B000321E9
:1005D80001FA03F3DB4319467B681B680A409A60FB
:1005E8007B681B6899687B681B687A690A439A600C
:1005F80000237B617B681B7A1A467B681B7902FAA9
:1006080003F37B617B681B685A687B681B79194612
:1006180001238B40DB4319467B681B680A405A60FC
:100628007B681B6859687B681B687A690A435A604B
:1006380000237B617B68DB791A467B681B795B004A
:1006480002FA03F37B617B681B68DA687B681B79B5
:100658005B00032101FA03F3DB4319467B681B683F
:100668000A40DA607B681B68D9687B681B687A690E
:100678000A43DA6000237B617B681B79DB083B74E3
:100688007B681B7903F00703FB737B681B683A7C64
:10069800083253F82210FB7B9B000F2202FA03F367
:1006A800DB4318467B681B683A7C0140083243F8F4
:1006B80022107B681B683A7C083253F822107B684A
:1006C8005B7A1A46FB7B9B0002FA03F318467B68A9
:1006D8001B683A7C0143083243F8221000BF1C37DC
:1006E800BD4680BC704700BF0000014000100240BA
:1006F8000004014080B483B000AF78600B46FB7003
:100708007B685B69FA78012101FA02F25A407B683A
:100718005A6100BF0C37BD4680BC704780B483B0B7
:1007280000AF03460A46FB711346BB71BB79012B28
:1007380033D1FB791F2B0AD8344B1B68FA79012176
:1007480001FA02F21146314A0B43136059E0FB7972
:100758001F2B0FD9FB793F2B0CD82D4B1B68FA792F
:1007680002F01F02012101FA02F21146284A0B4346
:10077800136046E0FB793F2B43D9FB795F2B40D8C8
:10078800244B1B68FA7902F03F02012101FA02F2B8
:100798001146204A0B43136033E0FB791F2B0AD81C
:1007A8001D4B1B68FA79012101FA02F211461A4A17
:1007B8000B43136025E0FB791E2B0FD9FB793F2BE8
:1007C8000CD8164B1B68FA7902F01F02012101FAB6
:1007D80002F21146114A0B43136012E0FB793F2BDA
:1007E8000FD9FB795F2B0CD80D4B1B68FA7902F0F7
:1007F8003F02012101FA02F21146094A0B43136034
:10080800FFE700BF0C37BD4680BC704700E100E041
:1008180004E100E008E100E080E100E084E100E0BC
:1008280088E100E080B483B000AF0346FB710C4B55
:100838005B69FA79012101FA02F21340002B09D011
:10084800074B5B69FA79012101FA02F21146044A61
:100858000B43536100BF0C37BD4680BC704700BFD7
:100868000004014070B50D4D0D4C641BA41000260A
:10087800A64209D10B4D0C4C00F018F8641BA410CB
:100888000026A64205D170BD55F8043B98470136AD
:10089800EEE755F8043B98470136F2E7CC08000824
:1008A800CC080008CC080008D0080008F8B500BF3C
:1008B800F8BC08BC9E467047F8B500BFF8BC08BC39
:0408C8009E46704791
:0408CC00AD01000872
:0408D0008901000892
:040000050800027974
:00000001FF
